:020000040800F2
:1000000030240020114600085544000857440008D9
:10001000594400085B4400085D44000800000000EB
:100020000000000000000000000000005F44000825
:1000300061440008000000006344000865440008B3
:1000400035460008394600083D460008414600088C
:1000500045460008494600084D460008514600083C
:1000600055460008594600085D46000861460008EC
:1000700065460008694600086D460008714600089C
:1000800075460008794600087D460008814600084C
:1000900085460008894600088D4600086944000826
:1000A0009146000895460008994600089D460008BC
:1000B000A1460008A5460008A9460008AD4600086C
:1000C000B1460008B5460008B9460008BD4600081C
:1000D000C1460008C5460008C9460008CD460008CC
:1000E00089440008D1460008D5460008D9460008D2
:1000F000DD460008E1460008E5460008E94600083C
:10010000ED460008F1460008F5460008F9460008EB
:10011000FD46000801470008054700080947000898
:100120000D47000811470008154700081947000847
:100130001D470008214700082547000829470008F7
:100140002D4700083147000835470008B74400082C
:10015000394700083D470008414700084547000867
:10016000494700084D470008514700085547000817
:10017000594700085D47000800000000000000002B
:1001800061470008654700080EB418B50446089892
:10019000012817D1A06B20F48030A063E168DFF85C
:1001A000A4070140E160E16821F44011E1600F988B
:1001B000012803D1E06840F48010E060204600F0A0
:1001C000ABFB0FE0E06840F04000E060204600F04C
:1001D000A3FB0C990029A16B0CBF41F4803121F4E1
:1001E0008031A16312BC5DF810FB10B5022A58D112
:1001F000DFF85427DFF8543752189A4238BF4FF4CB
:10020000705150D3DFF84827DFF8483752189A4228
:1002100038BF4FF4605146D3DFF83C27DFF83C3756
:1002200052189A4238BF4FF450513CD3DFF8302770
:10023000DFF8303752189A4238BF4FF4405132D36A
:10024000DFF82427DFF8243752189A4238BF4FF4DA
:10025000305128D3DFF81827DFF8183752189A42A0
:1002600038BF4FF420511ED3DFF80C27DFF80C37CE
:1002700052189A4215D3DFF80847DFF808276418A8
:10028000944238BF4FF400510DD3DFF8FC26DFF85D
:10029000FC36511899422CBF4FF4C0514FF4E05135
:1002A00001E04FF41051C26822F47052C260C2687B
:1002B0001143C160002010BD816841F0010102E0DE
:1002C00081684908490081600020704780B5C26894
:1002D00022F0C0420129C26005D1C16841F000513D
:1002E000C1603220B0E219B9C16841F08041F7E73E
:1002F000012002BD0EB42DE9F04305460446002658
:100300000021002004EB8102491C0F29C2F80401DE
:10031000F8D3DDF84490A06BB9F1000F0BD120F4B5
:100320000010A063216841F040012160206840F086
:100330008000206002E040F40010A06305F56062D8
:1003400005F50067166003213B683B60204600F01E
:100350008DF81021204600F06DF800B101262046EE
:1003600000F077F800B101260020386178612A4654
:10037000F8614FF67F334FF0904C4FF0006E002540
:1003800003E00D600D618B60401C0799884211D21B
:1003900002EB401101F51061D1F80080B8F1000FB7
:1003A000EFD5002806BF02F51068C8F800E0C1F8D4
:1003B00000C0E7E7002003E00D600D618B60401C8A
:1003C0000799884211D202EB401101F53061D1F852
:1003D0000080B8F1000FEFD5002806BF02F53068A5
:1003E000C8F800E0C1F800C0E7E7386920F4807081
:1003F0003861A5616FF080406061A169DFF8900508
:1004000041F01001A161A1690143A1610D9818B1EA
:10041000A06940F00800A061B9F1010F05D1A06901
:1004200040F0804040F00400A0613046BDE8F00399
:100430005DF810FB890141F020010161DFF85415DE
:10044000491E04D002699306FAD4002070470320A5
:10045000704710210161DFF83C15491E04D0026984
:10046000D306FAD4002070470320704700F50060DF
:1004700002681143D6E100F50060806800F00600D4
:10048000022818BF062801D1022070470F207047AC
:1004900070B50C784E782546012304F00F0400EB6C
:1004A000451203FA04F4012E00F50060DFF8E83489
:1004B0000DD1C669A4B2344302F51062C46110685C
:1004C000040412D400F013F844EA85540AE0C56924
:1004D00045EA044502F53062C5611068040404D49D
:1004E00000F005F8234303431360002070BD10683B
:1004F0008C68C978C4F30A0444EA81447047D06B1D
:10050000097801F00F018B40704730B50B784D78BA
:1005100000EB431200F500600124012D03F00F03EE
:10052000C56B04FA03F30FD19BB225EA0303C3633F
:1005300002F5106200F019F8A4B223EA0404C461C1
:100540001168DFF858040CE025EA0345C56302F59D
:10055000306200F00AF823EA0443C3611168DFF84F
:10056000400401401160002030BDC369097801F0EA
:100570000F018C407047F8B50A78DFF82854DFF88F
:10058000286400EB42144A78012A00F5006357D131
:100590004A6904F51064002A226909D116402661CF
:1005A000256945F4002525612269D20CD20420E09A
:1005B000D20CD20422612269164026618A6826691B
:1005C0004F69D7197F1EB7FBF2F205EAC2453543E2
:1005D000256122694D69C5F312052A432261CA7853
:1005E000012A07D1226922F0C0422261226942F029
:1005F00000522261226842F004422260CD78012D2F
:100600000BD04869002854D0586B0978012201F0BA
:100610000F018A40104358634BE09A68D30504D415
:10062000226842F00052226003E0236843F08053C6
:1006300023600A784B69C9689BB200F097F838E0EC
:1006400004F530642069C00CC004206120690640B4
:1006500026618A68486940B92069C2F312020243E0
:100660002261206940F400200FE01018401EB0FB0A
:10067000F2F080B2226905EAC0451543256122697E
:100680008D686843C0F3120010432061C8780128C8
:100690000BD19868C10504D4206840F00050206058
:1006A00003E0216841F080512160206840F004405F
:1006B00020600020F2BD10B50A78DFF8EC4200EBB4
:1006C00042134A78012A34D14A6903F51063002A9B
:1006D0001A6909D114401C611C6944F400241C618E
:1006E0001A69D20CD20414E0D20CD2041A611A692D
:1006F00014401C618A684C69A24288BF22464A6144
:100700001A6942F400221A611A694C69C4F312048E
:1007100022431A611C6844F004441C604A691AB3FD
:1007200000F500600123426BFFF7EAFE1A434263C3
:100730001AE003F530631869C00CC00418611A6927
:1007400014401C61486908B188684861186940F420
:100750000020186118698968C1F312010843186103
:10076000186840F004401860002010BDB0B5DB1CD4
:10077000002407E000EB023751F8045B07F58057CF
:10078000641C3D60B4EB930FF4D30020B0BD10B5F2
:10079000D21C002305E000F580545B1C246841F85E
:1007A000044BB3EB920FF6D3084610BD0A78497894
:1007B00000EB421001290CBF00F5106000F530601D
:1007C0000168002904D41AB1016821F08041016058
:1007D000026842F400120260002070470A7800EBC1
:1007E00042104A78012A0CBF00F5106000F5306015
:1007F000026822F400120260C978032918BF022996
:1008000003D1016841F0805101600020704700F57C
:1008100000600901026822F4FE62026001F4FE61D8
:100820000368194301600020704780B500F500603F
:10083000416821F0020105E080B500F500604168E3
:1008400041F002014160032000F0D2F8002002BD17
:100850000146486989690840704700F50061886968
:10086000C9690840000C704700F500618869C969D2
:10087000084080B27047024602EB411000F530603C
:1008800002F500628068516908407047024602F52F
:10089000006302EB411218695B6B01F00F0102F576
:1008A0001062CB40DB01926803F0800318431040D4
:1008B0007047406900F00100704700F5106100F5D5
:1008C00000600A68D20AD2020A60826802F0060258
:1008D000042A03D10A6842F003020A60416841F425
:1008E000807165E0016CDFF8C420914200F5306052
:1008F00002D3016800290DD400210161026942F48C
:1009000000220261016941F018010161016941F0B1
:10091000C041016100207047DFF878201146491E70
:100920000DD00369002BFAD5016941F00101016185
:10093000521E04D00169CB07FAD40020704703206F
:1009400070470000BFFFBDFF405327FF00350C007C
:10095000401E1BFF40420F0000DC0BFF804F1200C7
:10096000808CF9FE20D6130060B6E5FE60E3160029
:1009700000D3CEFE40771B00C05BB3FEC0912100C8
:1009800000CA91FE20753800E05459FEE09C4100F9
:1009900000383C80410D030000800010007833ECEB
:1009A0000078F3EF0000F81FFFFF07E00B30544F13
:1009B00041600020704730B4002513E050F8042B4C
:1009C000D30744BFA9F101039A18091F042942F86B
:1009D000045BFAD213468C0744BF15809B1CC907E1
:1009E00048BF1D7050F8041B0029E7D130BC704788
:1009F00038B5044600F010F814F1010F054602D096
:100A000004498868041900F007F8401BA042FAD393
:100A100031BD00BF0000002001480068704700BFE2
:100A20000000002070B504008AB04BD0266804F5A1
:100A30006F75687820B900212970204600F0AEFB60
:100A400003206870F16BC8055CBF0021216120683C
:100A5000FFF736FC83B000F04EF80EBC2068FFF7BD
:100A600093FB00282CD120680021FFF72FFC0021E8
:100A70001C2000260AE010FB01F222443C32012334
:100A800053701170D180002300F02EF862689142FB
:100A9000F1D3002109E010FB01F2224402F5FE72BD
:100AA00000231170537000F01FF862689142F2D376
:100AB00083B000F020F80EBC2068FFF71BFC18B1D3
:100AC0000220687001200DE084F83800012169706F
:100AD000606A012804BF204600F029FD2068FFF766
:100AE000ABFE00200AB070BD491CD6709360D66082
:100AF0005361C9B27047211D6846342200F02ABDF7
:100B000010B500F052FA01D1022010BD00F053FAE6
:100B10002068FFF7D1FBFFE7002084F8BC0310BD7D
:100B20002DE9F84F064684B030680190009000240B
:100B3000FFF7BFFE002840F02F8200F033FA0028B4
:100B400000F02A8200F02EFA800704D5306841694F
:100B500001F00201416100F025FA00035FD5306821
:100B6000FFF77BFE009FA04604004FF4004A53E0CD
:100B7000890644BF202282605FFA88F1304600F087
:100B80006EFB1FE0E00744D530685FFA88F1FFF79D
:100B900072FE054607EB481000F53069E80711D5ED
:100BA0000121C9F808103068DFF8F433026C00EB5B
:100BB000481000F530609A428168DDD10A04D7D52B
:100BC000C0F808A0280714D53068DFF8D423016CDA
:100BD00000EB481000F530639142986803D100049F
:100BE00048BFC3F808A0304600F033FB0820C9F81E
:100BF0000800E80644BF1021C9F80810A80644BF41
:100C00002021C9F80810A80444BF4FF40051C9F8C6
:100C1000081008F101086408B4D10097444600F0B8
:100C2000C1F9400340F187803068FFF71DFE804620
:100C30000098002400F500600390B8F1000F30E048
:100C4000D5F808B0411A8B4588BF8B460BF10300DD
:100C50004FEA9009E9681FFA8BF3E2B25046FFF7BA
:100C600085FDE8685844E860A9698B44C5F818B068
:100C70000AEB44126869A96902F5106293699BB294
:100C80004B4503D3814201D20028D9D1814205D3FB
:100C90000AF50067796B029801407963641C5FEA8A
:100CA000580848D05FEAC870F8D53068E1B2FFF75D
:100CB000EDFD0746012104F00F008140C943009D6E
:100CC000029105EB4415F90705F510650BD503985E
:100CD000416B0298039A014051630120A860E1B280
:100CE000304600F0C6FA380744BF0821A960F8066C
:100CF00044BF1021A960780644BF4021A960B8070D
:100D000044BF0221A9603806C8D51C216143314483
:100D100001F13C05A8696969D6F800A08142BDD3FC
:100D2000D5F80890081A814588BF814609F103006B
:100D30004FEA90099CE700F035F9002806F57D752B
:100D400017D5009800F500604168490849004160E6
:100D50002878012805D100212970304600F082FB57
:100D600002E0304600F0B0FA3068416901F000411D
:100D700041613068009FFFF76BFD000507F50067D4
:100D80000AD5B968C80744BF304600F091FA306808
:100D9000416901F40061416100F004F9000114D5DA
:100DA00031684A6902F000624A61287850B901222C
:100DB0002A70486DC0F3830068600121304600F05E
:100DC00051FB02E0304600F073FA00F0EBF8C0048B
:100DD00006F571784AD5796849084900796010218B
:100DE0003068FFF727FB009800214FF67F3212E0B2
:100DF00000EB411303F5106503F53063AA60491C4D
:100E0000D5F800E02EF4001EC5F800E09A601D68D9
:100E100025F400151D6073689942E9D3F86940F024
:100E20000110F861306B50B1D7F8840040F00B002E
:100E3000C7F88400786C40F00B00786409E07869AA
:100E400040F4005040F02B007861386940F00B000E
:100E500038614146386820F4FE6038603068FFF73A
:100E600041FD3068416901F48051416100F09AF818
:100E7000800416D53068FFF720FD3068FFF7FBFAD5
:100E8000F06000F06CFE0146F2683068D2B2FFF705
:100E9000ACF9304600F0FAF93068416901F40051CC
:100EA000416100F07FF8C00635D53068816921F0D6
:100EB000100181610198076A07F00F011C2041436E
:100EC000701800F5FE75C7F34340022812D147F6AB
:100ED000F07007421AD0E9680198C7F30A12FFF7C9
:100EE00056FCE968C7F30A100144E960AA69801852
:100EF000A8610BE0062809D1019808224146FFF7B6
:100F000046FCA969C7F30A104118A96130688169D4
:100F100041F01001816100F045F8000707D5304627
:100F200000F0B0F93068416901F00801416100F05A
:100F300039F8C00208D5E1B2304600F0DCF930687B
:100F4000416901F48011416100F02CF8800208D55C
:100F5000E1B2304600F0CBF93068416901F400118C
:100F6000416100F01FF8400007D5304600F0C7F996
:100F70003068416901F08041416100F013F8400799
:100F80000AD531684C68600744BF304600F0BBF9B1
:100F9000306841680C43446005B0BDE8F08F000044
:100FA0000A31544F3068FFF753BC044694F8BC2311
:100FB0002068012A7047A36A0122012B84F8BC2310
:100FC00003D1826B42F480328263FFF72EBC10B5EE
:100FD00000F00CF801D1022010BD012084F8BC0300
:100FE00084F838102068FFF712FC95E5044694F861
:100FF000BC030128704738B5054601F00F041C20DA
:10100000444328190C0647BF00F13C04012000F5B9
:10101000FE74002001F00F0160702170A260E37087
:10102000607808B12178E180022B04BF0020207194
:1010300095F8BC03012801D1022032BD012085F8BA
:10104000BC0321462868FFF723FA71E010B5044677
:1010500001F00F0200F094F800F085F801D10220B1
:1010600010BD00F087F8FFF750FA55E538B500F0ED
:1010700029F804F5FE74E260002211F00F016361AB
:10108000A261627013E001F00F011C225143084479
:10109000D0F81402704738B500F014F83C34E26020
:1010A00063610022012311F00F01A26163702170BE
:1010B0002146006802D1FFF7FEFA01E0FFF75BFA74
:1010C000002032BD01F00F051C2465434419704710
:1010D00038B505460C46696804F00F00814201D21C
:1010E000012032BD1C21220605D54843284400F1C9
:1010F0003C01012005E011FB04F1681800F5FE71C8
:101100000020487001228A7004F00F040C7095F8DA
:10111000BC03012801D1022032BD85F8BC23286818
:10112000FFF744FB24B9286805F57171FFF7DAFB76
:10113000002085F8BC0332BD10B5044601F00F0253
:101140006068904201D2012010BD00F019F8002320
:10115000837000F008F801D1022010BD00F00AF8F9
:10116000FFF73CFBD8E401F00F01017094F8BC13C9
:1011700001297047012284F8BC230146206870478A
:101180001C204243A0180A0603D53C3001234370BB
:10119000704700F5FE7000224270704710B586B0AF
:1011A0000446142101A800F04DFD2268B2F1A04FC1
:1011B00042D1DFF81C43206840F00100206000228B
:1011C000216801F0010100914FF400710098019134
:1011D0000292039200F032F802210291002203925F
:1011E0004FF4E0500321019004910A22059200F08F
:1011F00025F8206840F480502060216801F4805177
:1012000000910098E168C8000CD4E16841F0805179
:10121000E16000F018F800F04DFDE06820F080502B
:10122000E06001E000F046FD00220021432000F0D4
:1012300073FD432000F08DFD06B010BD01A94FF0F5
:10124000904000F0B1BDE06800F080500090009840
:10125000704700F57171D0F8040400F0DABE0B4657
:101260001C225343C218D0F80404D2F8082200F01C
:10127000FABE0B461C225343C218D0F80404926CE9
:1012800000F032BFD0F8040400F0BFBF10B5044630
:10129000E068022818BF01F04FF8D4F804040121D7
:1012A00000F0A2FFD4F80404BDE8104000F073BFC2
:1012B00010B5044600F0FEF8206A20B185480168A8
:1012C00041F00601016010BD10B5044600F0EAF8D7
:1012D000206A30B17F48016821F00601016000F00A
:1012E000D4FFD4F80404BDE8104000F088BFD0F863
:1012F000040400F098BFD0F8040400F092BFD0F8C6
:10130000040400F092BFD0F8040400F090BF10B5C0
:10131000017839BB704CC4F804040621C0F8984227
:1013200061604FF0A040206002220021E260A261D3
:10133000E16121626162A1622163E1622046FFF7FF
:1013400071FB08B100F0F8FF8021204600F0EBF8B7
:1013500040220021204600F0C5F8802201212046CD
:1013600000F0C0F8002010BD10B5D0F89802FFF7CB
:10137000C7FB002418B102280CBF01240224204618
:1013800010BD38B51C461346D0F898022246FFF728
:1013900032FE002518B102280CBF0125022528467F
:1013A00032BD10B5D0F89802FFF750FE002418B1F6
:1013B00002280CBF01240224204610BD10B5D0F82D
:1013C0009802FFF785FE002418B102280CBF012403
:1013D0000224204610BD10B5D0F89802FFF7ACFEED
:1013E000002418B102280CBF01240224204610BD9D
:1013F000D0F8982201F07F031C204343D01809063F
:1014000002D590F83E00704790F8FE01704710B585
:10141000D0F89802FFF7DBFD002418B102280CBFBA
:1014200001240224204610BD10B5D0F89802FFF721
:1014300032FE002418B102280CBF012402242046E9
:1014400010BD10B5D0F89802FFF710FE002418B1B7
:1014500002280CBF01240224204610BDD0F89802B7
:10146000FFF711BE38B504461A4D11B1012910D04D
:1014700031BD206A28B100F008FF286820F006007E
:10148000286000F00FF8D4F80404BDE8324000F002
:10149000B6BE00F00FF8206A18B1296841F00601C5
:1014A000296031BD206800F5606001684908490085
:1014B00001607047206800F56060016841F001013B
:1014C0000160D4F8040400F092BE044870470000A4
:1014D0004C10024010ED00E0901100203418002064
:1014E0007047000070B50068436A0C0003D143EAFE
:1014F0000242826215E0846A03EB1443002406E092
:1015000000EB8505641CD5F8046103EB1643E5B2D6
:101510004E1EB542F4D300EB810043EA0242C0F80C
:101520000021002070BD0068416200207047016802
:1015300000F57D700122002382600370886940F00D
:1015400000608861486D40F0805040F003004865BD
:10155000002070474AB1000011F8013B521E00F80C
:10156000013B1CBF11F8013BF8E770472DE9FC4730
:10157000040068D0DFF88C66DFF89876B068F5680C
:1015800000F00C082078C10605F003054BD5B8F132
:10159000000F04D0B8F10C0F08BF012D2CD130681A
:1015A000810702D5A06900284DD0316808074EBFD9
:1015B000316879680909206A01F0F001814206D298
:1015C00000F0E4FA002808D100F0E4F907E000F0A8
:1015D000E1F9206A00F0DAFA002840F0D68100F044
:1015E00075FAB26800F068FADFF82006006800F0CB
:1015F000A5FE010017D0CBE1A069002855D03168C5
:1016000041F001013160FFF707FA81463068810738
:1016100007D4FFF701FAA0EB09000328F6D3032053
:10162000B6E100F0B7F92078C1070ED5B8F1080F80
:1016300004D0B8F10C0F08BF032D47D130688103E7
:1016400003D56068002800F0A0812178880714D5B0
:10165000B8F1040F04D0B8F10C0F08BF022D6CD103
:101660003068410502D5E0680028ECD07068216937
:1016700020F0F85040EA016070602078010740F1E6
:101680008D8060690028786879D040F0010078602A
:10169000FFF7C2F905467868810700F17F80FFF700
:1016A000BBF9401B0328F6D3B9E730684008400077
:1016B0003060FFF7B1F9814630688107B3D5FFF795
:1016C000ABF9A0EB09000328F6D3A8E76068B0F5F2
:1016D000803F04D1306840F48030306011E0B0F5D4
:1016E000A02F306806D140F480203060316841F48A
:1016F000803105E020F480303060316821F48021B1
:101700003160606860B1FFF787F981463068810316
:101710009BD4FFF781F9A0EB09006528F6D37EE79B
:10172000FFF77AF98146306881038ED5FFF774F9A7
:10173000A0EB09006528F6D371E7E06878B131685D
:1017400041F480713160FFF767F905463068410563
:101750008CD4FFF761F9401B0328F7D35FE73068AB
:1017600020F480703060FFF757F905463068410576
:1017700083D5FFF751F9401B0328F7D34FE7400803
:1017800040007860FFF748F905467868810705D57D
:10179000FFF742F9401B0328F7D340E720784107C1
:1017A00063D5B06D0025C10009D4B06D40F0805004
:1017B000B0650125B06D00F0805000900098DFF812
:1017C0005894D9F80000C10513D4D9F8000040F4AA
:1017D0008070C9F80000FFF71FF98246D9F80000B1
:1017E000C10506D4FFF718F9A0EB0A000328F5D3CA
:1017F00015E7A068012804D1386840F0010038607E
:1018000010E00528386806D140F0040038603968D7
:1018100041F0010105E0400840003860396821F0DE
:1018200004013960A06841F2893960B1FFF7F4F82A
:1018300082463868810713D4FFF7EEF8A0EB0A0060
:101840004845F6D3EBE6FFF7E7F8824638688107AC
:1018500006D5FFF7E1F8A0EB0A004845F6D3DEE62F
:101860001DB1B06D20F08050B065A06A002800F076
:101870008E80B8F10C0F5AD00228306820F08070AA
:1018800030603BD1FFF7C8F805463068810105D5C7
:10189000FFF7C2F8401B0328F7D3C0E6F068DFF873
:1018A0007C13E26A0840216B1043491E40EA011094
:1018B000E26B616B520840EA0120216C521E49081C
:1018C00040EA4250491E40EA4160A16B090940EAE2
:1018D0004140F060306840F080703060F16841F065
:1018E0008071F160FFF798F80446306881014ED4AA
:1018F000FFF792F8001B0328F7D390E6316811F048
:10190000205F03D1F06880088000F060F168DFF8A4
:1019100010030140F160FFF77FF804463068810151
:1019200035D5FFF779F8001B0328F7D377E60128B0
:101930002BD0F068E26A00F00301914201BF00F091
:101940007001226B521EB1EB021F1ED1626B00F4BC
:10195000FE41B1EB022F18D1A16B07290CBF00216A
:10196000012100F400328A420FD1E26B520800F4E8
:10197000C001521EB1EB425F07D1216C490800F053
:10198000C060491EB0EB416F01D0012000E0002093
:10199000BDE8F687306840F0080030603168206AA2
:1019A00021F0F001014331607168E06921F47F4169
:1019B00041EA0021716070472DE9F041040088463A
:1019C00058D0DFF86062306800F00700404509D267
:1019D0003168C90848EAC1013160306800F0070089
:1019E000404547D12078DFF81C52C1072AD56068EE
:1019F000032802D129688A0108E0022802D1296857
:101A00008A0303E00028296802D18A0702D431E062
:101A10004A052FD5A968890840EA8100A860FEF729
:101A2000FBFF0746A868616800F00C00B0EB810F6F
:101A300008D0FEF7F1FFC01B41F289318842F1D393
:101A4000032037E02078810705D5AA68A06822F036
:101A5000F0020243AA60316801F0070188450BD209
:101A60003068C00848EAC0003060316801F0070102
:101A7000414501D001201DE02078410705D5AA6825
:101A8000E06822F4E0620243AA602178080706D5E4
:101A9000A968206921F4605141EAC001A96000F001
:101AA00015F8AA6800F008F8BDE8F041574800684A
:101AB00000F044BCBDE8F0815B49C2F30312895CCD
:101AC000514A01F01F01C8401060704770B54D4A7F
:101AD000574B9068D6680025002110F00C0006F0E6
:101AE0000306544C03D00C2812D1012E1AD11568CC
:101AF0002E0704D4464D2E68C6F3032502E0156870
:101B0000C5F303154C4E56F8255048B9294624E034
:101B1000042808BF214620D008281ED119461CE001
:101B20000C281AD1D06800F00300022803D0032843
:101B300008BF1D4600E02546D168D068D268C0F3D2
:101B400006204543C1F30210C2F34161401C491C09
:101B5000B5FBF0F04900B0FBF1F1084670BD2A4832
:101B6000006870472848314A006813683349C3F356
:101B7000022206E024482D4A006813682F49C3F367
:101B8000C222895C01F01F01C84070477CB52C4E11
:101B9000054630680024C10002D500F057F80EE079
:101BA000306840F080503060316801F08051009121
:101BB000009800F04BF8316821F080513160B0F5A9
:101BC000007F04D1802D0CD9A12D09D304E0802DF4
:101BD00088BF032405D801D1022402E0702D00D172
:101BE000012410480168C90844EAC1010160006885
:101BF00000F00700A04201D0012076BD002076BD94
:101C000000000000001002400C0000200400002032
:101C10009410024090100240007000408C809DF9AA
:101C2000FFFFEEFE002002401C45000808100240A5
:101C300000127A000024F4002C4500082C4600080D
:101C400058100240002200F09BBB0000DFF8840027
:101C5000006800F4C060704710B5DFF87810B0F588
:101C6000007F086800F4C06019D1B0F5007F1FD074
:101C70000868DFF86420DFF8644020F4C06040F4B6
:101C8000007000F01FF800E0401E4A69530501D5BE
:101C90000028F9D1486941050AD5032010BDB0F5E7
:101CA000806F05D0086820F4C06040F48060086050
:101CB000002010BDDFF82800FFE7016841F48061D3
:101CC000016070470860322013684343B3FBF4F0AF
:101CD000401C7047007000400C00002040420F0084
:101CE000047000400901020002D429488154704761
:101CF000284B02F00F021A4402F8041C7047264BCE
:101D000019684FF6FF020002114000F4E06008433A
:101D1000224908431860704770B51F4B1C68C4F314
:101D200002230124C3F10705052D2EBF0F2504FA58
:101D300005F56D1E1E1D072E34BF0023DB1E294036
:101D4000994004FA03F3BDE870405B1E1A4011434A
:101D5000C8E7010007D4012200F01F01104B8A40A0
:101D6000400943F82020704710B5401EB0F1807F35
:101D700001D3012010BD0B4C60600F214FF0FF30EC
:101D8000FFF7B0FF0021A16007202060002010BDF8
:101D900000E400E018ED00E00CED00E00000FA05C2
:101DA00000E100E010E000E02DE9F84F4FF0000EF8
:101DB000754BDFF8D881DFF8D8914FF00F0A07464E
:101DC0008C462BE0734DAF4214BF072506258D408E
:101DD000254348F82250C1431A68DCF804400A4001
:101DE000E50348BF02431A605A68DCF804400A4021
:101DF000A50348BF02435A609A68DCF804400A40D1
:101E0000E50248BF02439A60DA680A40DCF8041031
:101E10008C0248BF0243DA600EF1010EDCF80010BC
:101E200031FA0EF000F0A080012202FA0EF212EA5E
:101E30000100F1D0DCF80440022C18BF122C4FEA4C
:101E40008E0110D14FEADE0407EB840401F01C057B
:101E5000266A0AFA05FB26EA0B06DCF810B00BFA34
:101E600005F5354325624FEA4E0403253E689CF88C
:101E700004B0A540ED430BF0030B2E400BFA04FB1E
:101E80004BEA06063E60D243DCF80460012E18BF20
:101E9000022E03D0112E18BF122E13D1BE68DCF80B
:101EA0000CB02E400BFA04FB4BEA0606BE607E68BF
:101EB000DCF804B0CBF3001B16400BFA0EFB4BEA28
:101EC00006067E60DCF8046006F0030BBBF1030F2E
:101ED00009D1D7F82CB0C6F3C00602EA0B0206FA05
:101EE0000EF63243FA62FA681540DCF8082002FA6E
:101EF00004F42C43FC60DCF80440E2008CD5D9F8F3
:101F0000004044F00104C9F800404FEA9E02D9F8AD
:101F1000005005F00105009501F00C01009C58F8F7
:101F200022500AFA01F425EA0404B7F1904F08BFE1
:101F3000002518D0184DAF4208BF012513D0174D0A
:101F4000AF4208BF02250ED0154DAF4208BF032592
:101F500009D0144DAF4208BF042504D0124DAF4242
:101F60007FF430AF052532E7BDE8F18F0AB181611A
:101F70007047816270470D4A136803421CBF1060AE
:101F800000F016B87047000000040140080001404E
:101F90006010024000180048000400480008004893
:101FA000000C0048001000480014004814040140D0
:101FB000704738B508B9022032BD00F51D74A36919
:101FC0000BB10025A56101B1616101212170027091
:101FD000FFF79DF9002032BD0246002011B1C2F882
:101FE0008C1270470220704780B5FFF7BDF90020C2
:101FF00002BD10B5D0F88C2202241AB112689047A5
:1020000000B90024204610BD80B5D0F88C2253685A
:1020100016E138B5044604F52075284600F0B0FBFB
:1020200004F51B7001210160428B017D426011F0BB
:102030001F0003D002280BD005D30EE0294620460E
:1020400000F0B8F90DE02946204600F0DBFA08E080
:102050002946204600F000FB03E001F0800100F07B
:1020600040F8002032BD38B5044610460A0004F599
:102070001B7329D1196803291ED104F5A6714A687A
:102080000D68AA420BD2AD1A0D60954238BF2A46A0
:10209000014692B2204600F0D0FB002032BD196A02
:1020A000086928B1187A032802D1096920468847AF
:1020B000204600F0CAFBF0E70529EED100201860A9
:1020C000002100F00EF8E8E71A6A906930B1187A3A
:1020D000032803D1926920469047DEE7022032BDF3
:1020E00080212046FFF76AB938B504460800134638
:1020F00004F51B7543D12868022833D1226A616A2E
:10210000914207D2521A2262194692B2204600F03A
:1021100082FB11E0E269B2FBF1F001FB102090B903
:102120008A4210D3686882420DD2002200212046E4
:1021300000F071FB0020686000230022002120468F
:10214000FFF77FF914E0296AC86828B1287A0328C4
:1021500002D1C96820468847FFF7C2FF204600F039
:102160007BFB05E0042818BF002801D1FFF7B8FF6A
:10217000287B012804BF00212973002032BD2A6A70
:10218000506930B1287A032803D15269204690471C
:10219000F3E7022032BD38B5044640230022002177
:1021A000FFF7EFF804F5A270012140220160C26040
:1021B0004023002280212046FFF7E3F80120402140
:1021C00004F51B72A06161621072002111606160F0
:1021D0000025506A156128B1126A61685368C9B256
:1021E00020469847002032BD01740020704700F55A
:1021F0001D7004220178417002700020704700F5C4
:102200001D70417801700020704780B500F51D7188
:102210000A78032A03D18969C96901B18847002076
:1022200002BD00207047002070470020704780B535
:1022300000F51D7201231370926941685368C9B299
:102240009847002002BD000010B500F00DFB00F023
:102250001CF800F019FB00F059FC00F0B1FC00F094
:102260000FFD00F05BFD00F0BBFD00F0D5FD00F0C0
:1022700059FE00F0ADFD2D4C21680029FCD0201D39
:1022800000F0A1FE00202060F6E780B5B8B0442140
:1022900005A8FFF7D7FC14216846FFF7D3FC882177
:1022A00016A8FFF7CFFC00F0A9FE2148016821F035
:1022B000180101601422012107910B910592002160
:1022C0000C91B02202210D920F9101220621109251
:1022D00011912822072112921391022204211492B3
:1022E000159105A8FFF742F90F20032100900191F5
:1022F000002202920392049204216846FFF75CFBDD
:102300000C48169000214FF04062249126912791AD
:102310002B913691319216A800F078FE4FF40070A0
:10232000FFF79AFC01F00EF839B000BD541C0020F4
:10233000901002408D2001007047000070B50E4ED5
:102340000446B0680025A0B14FF47A710B4AB1FB86
:10235000F0F11068B0FBF1F0FFF706FD48B9102C62
:1023600007D2002221464FF0FF30FFF7D5FC746002
:1023700000E00125284670BD000000200C00002070
:1023800000B500BF130096469446103928BFA0E858
:102390000C50FAD85FEA417C28BF0CC048BF40F817
:1023A000042BC90728BF20F8022B48BF00F8012BD7
:1023B00000BD0000F8B500F046F904F51D7608D020
:1023C000202818BF402821D1B26993682046984739
:1023D00013E16878092819D8DFE810F0EC0004014F
:1023E000C500FE00C50087000A00C500DA00A30092
:1023F0006888010A012955D0022946D0032918D03E
:1024000006290ED0072902D00F2951D0ABE0207C3D
:102410000028FBD1B1690A6B6846904707214170DB
:102420004BE0207C0028F1D1B1694A6B68469047A7
:1024300043E0C0B20528E9D8DFE800F0211B150F02
:1024400009037269207C93696946984735E072698F
:10245000207C5369694698472FE07269207C136994
:102460006946984729E07269207CD3686946984795
:1024700023E07269207C9368694698471DE0726981
:10248000207C53686946984717E0207CB169002892
:10249000684602D1896A884701E0C96A88470222F2
:1024A00042700AE07269207C13686946984704E02C
:1024B0007269207CD36969469847BDF8001081B1E4
:1024C000E988002910D0BDF80010EA88914288BF41
:1024D0001146ADF800100146BDF80020204600F07E
:1024E00092F9E88800281BD185E0A888002804BF5D
:1024F000E888002837D16F88802F34D230780328BD
:1025000007F07F072FD0B77039462046FEF77FFFD0
:1025100000F09FF8002F07BF0121317002203070BA
:102520006BE0374F688838703978084602281AD22D
:102530003278022A1AD0032A23D131B9022030700E
:1025400061602046FFF760FD55E06168884252D027
:10255000C9B22046FFF758FD397861602046FFF781
:1025600048FD022847D100F008F946E0002942D092
:102570006060032030702046FFF73BFD0228F2D058
:1025800039E000F0FAF839782046FFF73DFD34E0F5
:10259000E8880128E7D13178491E012904D9891E2C
:1025A000E1D10122211D13E00020A060012204F1ED
:1025B00008010DE03078401E0228D4D8EA88022AAB
:1025C000D1D1B068012100B10321E16004F10C0117
:1025D000204600F018F910E0688801280DD101218B
:1025E000B16008E03078401E0228BCD86A88012A11
:1025F00003D10020B06000F02CF80020F2BD0000F4
:102600002C20002038B500F01EF81CBF20284028E0
:1026100015D104F51D721078401E02280FD82B79B1
:10262000022B0CD292699368204698470146E888AD
:10263000002808BF002904D100F00BF801E000F0E9
:102640009DF8002032BD0D460446287810F0600049
:102650007047204600F0F9B8F8B50A7804460879C2
:1026600012F0600504F51D7308D0202D18BF402D11
:1026700066D19A6993682046984763E002F0600249
:10268000202A05D19A6993682046BDE8F44018478E
:102690004A787AB3012A11D0032A51D11B78022B30
:1026A00012D0032B4CD14A880ABB002818BF8028BF
:1026B0001DD0C988D9B900F05CF818E01A78022A50
:1026C00002D0032A0AD03BE0002818BF802837D068
:1026D00000F04FF8802100F04DF833E04A888ABBC3
:1026E00010F07F0103D001462046FEF774FEFFF78D
:1026F000B0FF27E0142600F07F021B787243A71872
:10270000022B07F5A07500F0800202D0032B0FD03A
:1027100016E0002818BF802812D10AB107F114056D
:102720000020286002222946204600F06CF809E0CB
:1027300000F00F0316FB03F6A3192AB19A696AB9D0
:1027400000F01CF80020F2BDD3F84421002AF7D095
:10275000002818BF802804D10020E2E707F1140503
:10276000F6E701462046FEF743FE0028D9D00120B7
:10277000D7E701462046FEF721BE2946204614E051
:1027800010B50A7802704B7843708A78CB7802EBE8
:10279000032444800A794B7902EB032484808A79EC
:1027A000C97902EB0123C38010BD10B50446802116
:1027B000FEF704FE2046BDE810400021FEF7FEBDF6
:1027C00000280B4600D1704770B50146002400E098
:1027D000641C11F8015B002DFAD12406E40DA41C41
:1027E00014801178197003225A70022207E010F841
:1027F000011BD4B2521C1955D6B2521C9D550178FA
:102800000029F4D170BD80B513460222C0F86C22B5
:10281000C361036201E080B513460A460021FEF75A
:1028200003FE002002BD80B513460322C0F86C22CF
:1028300000F5A4721360536001E080B513460A46A8
:102840000021FEF7FEFD002002BD80B50421C0F886
:102850006C1200230022E1E780B50521C0F86C125C
:1028600000230022ECE70000032010B5FFF747FA31
:102870000020FFF763FD0024002814BF012400F0AE
:102880006DFE204610BD00002DE9F84386B01422ED
:102890000021684600F07AFE7E48DFF8FC9101686E
:1028A0007E4D7F4EDFF8FC817F4F41F010010160CB
:1028B00048F20414026802F01002059205990268B9
:1028C00042F004020260036803F0040305930599D3
:1028D000026842F001020260036803F001030593FD
:1028E0000599026842F002020260036803F00203E5
:1028F00005930599026842F0080202600022006810
:1029000000F0080005904FF48A7105984846FFF7DB
:102910002DFB002221464FF09040FFF727FB0022BD
:102920004FF214012846FFF721FB002241F28101FA
:102930003046FFF71BFB01224FF400513046FFF7F2
:1029400015FB00224FF410714046FFF70FFB0122E8
:1029500020212846FFF70AFB012201214846FFF704
:1029600005FB40F2151100F0C8F84846FFF71CFAC5
:102970006A200090019700210291484600F0A7F8D4
:102980004FF40050494900F0AAF83F200B2100F015
:10299000A6F801200190002202920392009400F018
:1029A000A7F80820009002210022029203920191D0
:1029B000012200F09CF8102000F083F800F098F855
:1029C000022100F080F8E02003210090039105220D
:1029D00000F08DF8012100F07DF8284600F077F82E
:1029E000022000F06EF800F063F84FF2340100F0BE
:1029F00084F800F05EF84CF6044100F06BF83046C5
:102A000000F065F843F2810100F077F800F056F825
:102A10004FF4107100F071F84046FFF7C5F94FF41C
:102A2000C07100F057F8404600F051F800220292C1
:102A300002200321009001900391052200F03CF850
:102A4000022100F040F87820032100900391072232
:102A500000F032F812210191012202924FF44070ED
:102A60000321009003910422049200F021F8002237
:102A700000211720FFF750F91720FFF76AF900220D
:102A800000212820FFF748F92820FFF762F907B056
:102A9000BDE8F0834C1002400010004800040048DC
:102AA000000C004800080048000011100000211030
:102AB00069462846FFF778B9049269463046FFF721
:102AC00073B90B2100900191002202927047694670
:102AD000FFF76AB9009101970021029170470090B9
:102AE00001910022029269464046FFF75DB90492C7
:102AF00069464FF09040FFF757B90091012200213D
:102B0000029103910192694670470000012280B54D
:102B100026482749027101604FF4807282610023C8
:102B200004220262022101228360C16003614361C9
:102B3000C36143628262C362036300F031FD18B176
:102B4000BDE80140FFF7F8BB01BD10B586B0142207
:102B5000002101A800F01AFD164C206818BB164889
:102B6000416941F080714161416901F080710091DA
:102B70000099026842F0100202604FF42071006870
:102B800000F010000090022200980C48019102927F
:102B90000021039104910621059101A9FFF704F991
:102BA0002068401C206006B010BD0000CC1F002033
:102BB00020600140282000204C10024000100048F6
:102BC00010B52A4C2A482B49206000220120E060E1
:102BD0006160A26022616261A261E26122622046BC
:102BE00000F08EFD08B1FFF7A7FB0021204600F0A2
:102BF000DFFD08B1FFF7A0FB0021204600F0EDFD4E
:102C000018B1BDE81040FFF797BB10BD10B586B0F6
:102C100004461422002101A800F0B8FC21681448E1
:102C2000814221D1144C216841F0020121604FF40E
:102C30004061206800F002000090122200980F48C6
:102C40000191029201210391032204210591049232
:102C500001A9FFF7A9F8E06840F48000E060E068AF
:102C600000F480000090009806B010BD3C1F0020CA
:102C700000580040EC9C90104C10024000040048AA
:102C800080B5224822490160FF22012300214260D1
:102C90008360C16003614161816100F0C9FD18B1C9
:102CA000BDE80140FFF748BB01BD10B586B0044642
:102CB0001422002101A800F069FC21681448814217
:102CC00021D11448416841F480714160416801F4A8
:102CD000807100910099026842F0100202604FF486
:102CE0007C41006800F010000090022200980A4821
:102CF000019102920021039103220A21059104927D
:102D000001A9FFF751F806B010BD0000881F002090
:102D1000001000A04C1002400010004880B5284868
:102D2000284901604FF482724FF44071C1604260E3
:102D30000721C16200234FF4007208218360036100
:102D400043618261C36103624362836203634163DF
:102D500000F0EAFD18B1BDE80140FFF7EDBA01BD92
:102D600010B586B004461422002101A800F00EFC24
:102D700021681448814221D11348C16841F40041BF
:102D8000C160C16801F4004100910099026842F0FD
:102D9000040202604FF4E051006800F0040000906B
:102DA0000222009809480191029200210391032216
:102DB00006210591049201A9FEF7F6FF06B010BDA9
:102DC000D81E0020003C00404C1002400008004883
:102DD00080B54B484B4900F00BF800B118E001BD3D
:102DE00080B54948494900F003F800B110E001BD41
:102DF00001604FF4E13200230C2142608360C36024
:102E0000036141618361C3610362436200F0E4BD19
:102E1000BDE80140FFF790BA80B53D483D49FFF756
:102E2000E7FF00B1F4E701BD10B586B004461422F7
:102E30000021684600F0AAFB2168324A36489142D8
:102E40001CD1C16841F40021C160C16801F40021B6
:102E500005910599026842F00102026003210068B1
:102E600000F0010005900222059800F043F80821C7
:102E70000491039269464FF0904037E0234A914213
:102E800015D1416941F480414161416901F48041BA
:102E900005910599026842F002020260C0210068B3
:102EA00000F002000590022205981C4818E0194A1B
:102EB00091421DD1C16841F48021C160C16801F413
:102EC000802105910599026842F0080202604FF4E2
:102ED0004071006800F00800059002220598104833
:102EE00000F008F80721049103926946FEF75CFFA1
:102EF00006B010BD0091019200210291032270479B
:102F0000581D0020004C0040D81D00200038014012
:102F1000581E0020004800404C10024000040048A9
:102F2000000C004810B5104C104900222046FFF755
:102F300040F808B1FFF700FA0D492046FFF74CF8BA
:102F400008B1FFF7F9F90B49204601F0C7F808B1BD
:102F5000FFF7F2F92046FFF747F818B1BDE8104037
:102F6000FFF7EAB910BD00BF98150020300100201E
:102F70001C0000202001002038B51C4C1C4D0022F4
:102F800005F50061204601F0B0F82946204601F021
:102F9000B4F8002032BD002070470020704770B5A3
:102FA00004460D46114E2146304601F0A6F8304643
:102FB00001F0C1F82A680F48026021460E48FEF76A
:102FC000C9FA002070BD10B5084CD4F890320A46FA
:102FD000D3F8141209B1012010BD0146204601F0BA
:102FE00084F82046BDE8104001F08DB89815002007
:102FF00090010020541C0020581C00200248016849
:1030000041F4807101607047007000402DE9FC4779
:10301000064600243068DFF820740105A04621D55B
:10302000706E70B1B0F5800F17D0B0F5000F03D0FF
:10303000B0F5400F09D013E03A6842F480323A60AC
:1030400004E0002100F07CF9044654B9F96F706E79
:1030500021F440010143F96704E000F06BF9F3E764
:103060000124A0463068C10421D5B06EA8B1B0F1EA
:10307000807F17D0B0F1007F03D0B0F1407F04D043
:1030800013E0396841F4803139607CB9F96FB06E72
:1030900021F040710143F96709E0002100F050F987
:1030A0000446F2E700F046F9FAE70124A04630684A
:1030B00081032BD5F86CC1004FF000090AD4F86CDD
:1030C00040F08050F8644FF00109F86C00F0805037
:1030D00000900098DFF83454286840F4807028602D
:1030E000FDF79AFC82462868C10500F18280FDF751
:1030F00093FCA0EB0A000328F5D30324A046B9F102
:10310000000F03D0F86C20F08050F8643078C107CD
:1031100005D5FA6FB06B920840EA8202FA673178FF
:10312000880705D5F96FF06B21F00C010143F967B1
:103130003178480705D5F96F306C21F03001014333
:10314000F9673178080705D5F96F706C21F0C00177
:103150000143F9673178C80605D5F96FB06C21F4E1
:1031600040710143F9673178880605D5F96FF06C35
:1031700021F440610143F9673168880505D5F96F8D
:10318000F06D21F440210143F9673168480505D508
:10319000F96F306E21F440110143F9673178480628
:1031A00005D5F96F306D21F440510143F96731784D
:1031B000080605D5F96F706D21F440410143F967A8
:1031C0003168C80505D5F96FB06D21F44031014370
:1031D000F9673168880446D5F96FF06E21F04061D7
:1031E0000143F967F06EB0F1006F34D100F09DF843
:1031F00039E0002C82D1DFF85043206810F4407091
:103200001CBFD6F8841088420BD02068216841F496
:103210008031216020F44070226822F480322260E4
:103220002060C0070FD5FDF7F7FB05462068810732
:1032300009D4FDF7F1FB401B41F289318842F5D3F7
:103240004FF003085BE72168D6F8840021F4407151
:103250000143216053E7B0F1806F04D100F06FF8B3
:10326000010018BF80463068010314D5FA6F306F33
:1032700022F040620243FA67306FB0F1006F02D172
:1032800000F053F807E0B0F1806F04D100F057F878
:10329000010018BF80463068410314D5FA6F706F83
:1032A00022F040620243FA67706FB0F1006F02D102
:1032B00000F03BF807E0B0F1806F04D100F03FF878
:1032C000010018BF80463068410418D5FA6FB06F0E
:1032D00022F040520243FA67B06FB0F1805F03D131
:1032E000022100F02DF807E0B0F1005F07D10221C4
:1032F00006F1200000F0A2F8010018BF80463068F7
:10330000010405D5FA6FF06F22F080420243FA679C
:103310003168C80306D5F96FD6F8800021F0004166
:103320000143F9674046BDE8F687386840F48010ED
:1033300038607047002106F1200000F07FB80121BD
:10334000301D05E08148016841F0040101607047CB
:103350002DE9F04105467D4F28680C46F9680026A6
:1033600011F0030F0DD0F96801F00301814231D152
:1033700080B3F8686968C0F30210401C88420ED020
:1033800028E0012804D025D303281DD018D321E03C
:103390003A6891071ED5FA68696800F0C0F8386885
:1033A00020F0806000F0CCF880463868010113D529
:1033B000FDF732FBA0EB08000328F6D3032637E025
:1033C00039684A05E7D405E039688A03E3D43968E7
:1033D0004A03E0D401262BE0A9682CB93A695C487D
:1033E000EB6800F095F80FE0012C3A6909D12B69E0
:1033F000584802405B0842EA01215B1E41EA435102
:1034000002E06B6900F093F83961386840F0806041
:1034100000F096F804463868010105D4FDF7FCFA7F
:10342000001B0328F7D3C9E73869A9690843386145
:103430003046BDE8F08100000C1002402DE9F0415B
:103440000646424F30680C46F968002511F0030F1C
:103450000DD0F96801F00301814231D180B3F868E1
:103460007168C0F30210401C88420ED028E0012889
:1034700004D025D303281DD018D321E03A68910742
:103480001ED5FA68716800F04AF8386820F080505C
:1034900000F056F880463868810013D5FDF7BCFA75
:1034A000A0EB08000328F6D303252BE039684A0572
:1034B000E7D405E039688A03E3D439684A03E0D4E5
:1034C00001251FE0B1687A69002C04D12048F36817
:1034D00000F01EF802E0336900F029F879613868DD
:1034E00040F0805000F02CF804463868810005D484
:1034F000FDF792FA001B0328F7D3D5E778697169C5
:10350000084378612846BDE8F08100000070004063
:10351000024042EA01211B0941EA4341704722F07F
:1035200073021043491E40EA0110F86070470A48D0
:1035300002405B0842EA01215B1E41EA4361704799
:103540003860FDF769BA0000901002400010024098
:10355000FF80FDFFFF809FFFFF80FFF90A4881B0D9
:10356000816841F001018160816801F001010091F1
:103570000099026842F080520260006800F08050BA
:103580000090009801B070475810024010B50446F2
:1035900010460A460146204600F0E0FD204610BDD8
:1035A00070B5040005D000F067F8291D51F820001F
:1035B00008B1012070BD2046FFF7C7FA2868401CFB
:1035C0002860296801291AD1DFF8B810086820F0AE
:1035D000804008600A68A06802430A600B6823F410
:1035E0007F030B602079012805D10A68E068401E3E
:1035F00042EA00420A60086840F000400860206823
:10360000016821F471410160036826696269A1695A
:1036100016430E433343036003681B091B01036019
:103620000268E369216A0B431A430260826822F44C
:103630005F0282608168A36A626A5B1E42EA03429B
:1036400011438160416801F0070141604168236BCB
:10365000E26ADB0043EA0223194341600122016868
:1036600041F08001016084F8342000F00DF8291D3C
:1036700041F82040002070BD2068DFF8645000F061
:1036800003B80000006001401449884222D0154967
:10369000884201D1012070471349884201D102209C
:1036A00070471249884201D103207047104988426F
:1036B00001D1042070470F49884201D1052070478D
:1036C0000D49884201D1062070470C49884201D13A
:1036D0000720704700207047000000000060014094
:1036E00004200020206001404060014060600140F3
:1036F00080600140A0600140C0600140E060014086
:1037000038B5040001D1012032BD04F140056878CC
:1037100020B9002129702046FFF778FA00F040F820
:103720006068216820F0706008612068816821F479
:1037300000418160E06821680128A0680CBF40F466
:10374000004040F404408860E068022803D120680B
:103750004FF4006141602068416841F0007141F41C
:10376000004141602068C16821F40041C160606986
:103770002169A2690143206841EA0221C160206AEF
:10378000E1692268014311602068016841F001018C
:10379000016000206860202169702063A87032BD3C
:1037A000242068702068016849084900016070475A
:1037B00030B500F140025378202B0CD11478012C45
:1037C00009D000F01DF824F480541C6003681D68C3
:1037D0002943196020E0022030BD30B500F14002DD
:1037E0005378202B0AD11478012C07D000F008F868
:1037F00024F4706444EA01241C600DE0022030BD12
:10380000012313702424547003681D686D086D0033
:103810001D6003681C6870470068016841F0010181
:1038200001602020507000211170002030BD000088
:10383000F8B50446FDF7F0F806460CB90120F2BDD4
:1038400004F138052878012801D10220F2BD0121B8
:103850002970687838B9002129702046FFF725FAC9
:1038600041F28830A860334620680168A26821F4DC
:103870007061521E41EA0221016000F029F8010046
:103880001ED122681049136866680B40E16843EA5C
:1038900006630B4313600D4923685E6827696269FC
:1038A0000E4046EA0746A16916430E435E60216852
:1038B0000A6842F001020A600021696001226A7010
:1038C00000212970F2BD0000EFFFFF00FEF8E0FFCD
:1038D0000022A868009020212046FFE72DE9F04152
:1038E000069C05460E4690461F462868816816EAE3
:1038F000010018BF0120404512D014F1010FF4D08F
:10390000FDF78AF8C01B844201D3002CEDD10420BE
:1039100085F839000120E96B41F00101E96300E01D
:103920000020BDE8F081000070B5040001D1012045
:1039300070BD0020A06204F15C05687820B9002108
:1039400029702046FFF70CFA0220687000F03DF85D
:10395000E168B1F5E06F04D90022B1F5706F03D1D1
:1039600004E04FF4805201D00020A062206B30B9F7
:10397000B1F5E06F87BF02202063012121636368F6
:10398000A06821692668034360690B43A16903436A
:1039900001F40071E0690B43216A0343A06A0B4301
:1039A00003433360A369606A616B1B0C03F004037B
:1039B0000343E0680B4303431A4323685A60002122
:1039C000696001206870002070BD2068016821F0E6
:1039D000400101607047000038B5040009D004F1CF
:1039E0007005696809B900F01EF800F021F8012897
:1039F00001D1012032BD606A08B100F02AF800F060
:103A00000AF821F02A01FFE7816000F01BF8BDE809
:103A1000324000F0DEB92068416821F490414160F5
:103A2000206881687047002028702046FFF7FCB9A5
:103A30002421696020680268520852000260204612
:103A400000F00AB82068016841F0010101602046D9
:103A50007047204600F05AB92DE9F04104469C48D1
:103A600022681368A168034020690B43616903431E
:103A7000E0690B430343136000265168E06821F4BA
:103A80004051014351600025A36992498A421CBFFD
:103A9000206A03439768904827F430673B4393605C
:103AA0008E4F8F4BBA4221D11B6803F00303032BC7
:103AB00029D8DFE803F0025F50710127E169B1F511
:103AC000004F4FF6F07840F0D38067B1012F00F03F
:103AD000A980022F00F0A980042F00F0AB80082FEE
:103AE00000F0B180B7E0FEF73DF8A5E07D4FBA42A7
:103AF00023D11B6813F00C035FD0042B3AD0082BA2
:103B000029D00C2B48D010278A42D7D1390006D0B3
:103B1000022F09D0042F52D0082F53D0D0E0FEF747
:103B200021F8002800F0CD80626802EB4201884253
:103B300002D31303834248D2C2E06B4FBA420CD186
:103B40001B6813F0300338D0102B13D0202B02D079
:103B5000302B21D0D7E70227D6E7644FBA420BD1EA
:103B60001B6813F0C00328D0402B03D0802BF2D069
:103B7000C02BEEE70427C7E75D4FBA420ED11B68A2
:103B800013F4407319D0B3F5807FF3D0B3F5007F01
:103B9000E1D0B3F5407FB6D10827B5E78A42B2D16C
:103BA0001B6813F4406308D0B3F5806FE2D0B3F51F
:103BB000006FD0D0B3F5406FCBE70027A4E7FDF747
:103BC00085FFAEE74FF40040AEE737B1022F0AD0D1
:103BD000042F0ED0082F16D01BE0FDF7C3FF00F016
:103BE0008FF879410AE0434911EB520045EB05019A
:103BF00004E0FDF76BFF00F083F86941002300F05B
:103C0000E1FA064606E0530803F50003B3FBF2F6BB
:103C100000E00125A6F540703749884250D222685D
:103C2000D6604EE0FDF7A6FF06E06068334901EB81
:103C300050010CE0FDF74AFF61684A0802EB4002C0
:103C4000B2FBF1F605E06068410801F58031B1FB97
:103C5000F0F6B6B200E00125A6F1100040452FD2E3
:103C600008EA0601C6F3420001432068C16028E06B
:103C700047B1012F09D0022F0CD0042F08D0082FF4
:103C80000ED015E0FDF76EFF04E0FDF773FF01E0D5
:103C9000FDF71CFF616800EB5100B0FBF1F605E099
:103CA0006068410801F50041B1FBF0F6B6B200E0F2
:103CB0000125A6F11000404502D22168CE6000E047
:103CC00001250020206660662846BDE8F0810000DE
:103CD000F369FFEF008000400024F4000038014049
:103CE000881002400044004000480040004C004062
:103CF00000500040000024F400FD0F000048E801DF
:103D00006268010E560816EB0020704790F82410E8
:103D1000CA0706D502685368816A23F400330B434F
:103D2000536090F824108A0706D502685368C16A68
:103D300023F480330B43536090F824104A0706D5D0
:103D400002685368016B23F480230B43536090F89F
:103D500024100A0706D502685368416B23F4004318
:103D60000B43536090F82410CA0606D50268936886
:103D7000816B23F480530B43936090F824108A06E0
:103D800006D502689368C16B23F400530B4393601C
:103D900090F824104A0610D502685368016C23F489
:103DA00080130B435360036CB3F5801F05D1536838
:103DB000416C23F4C0030B43536090F824100A06AF
:103DC00006D501684A68806C22F4002202434A60EA
:103DD0007047F8B5044604F170050020E8606FF004
:103DE0007E47FCF719FE0646206801680A0708D5D9
:103DF0000097334600224FF40011204600F016F8D9
:103E000060B9206801684A070AD500973346002246
:103E10004FF48001204600F009F808B10320F2BDFC
:103E200020206860A86000202870F2BD2DE9F041D4
:103E3000069C05460E4690461F462868C1693140DB
:103E4000B1420CBF01200020404519D114F1010FEF
:103E5000F3D0FCF7E1FDC01B844201D3002CECD170
:103E60002868016821F4D071016000F00CF805F1B8
:103E7000700020214160816000210170032000E07A
:103E80000020BDE8F0812868816849084900816008
:103E90007047000070B505460026287C40B94FF4F5
:103EA000007300F03AF80122EA624FF4007305E073
:103EB000402300F032F80120E86240230222012171
:103EC0002846FDF75EFA0120C5F8580108230322B1
:103ED00082212846FDF755FA012028644FF4077027
:103EE000FDF7F3FA040005F5247008BF012604600D
:103EF00011D040680168884704F501700661466189
:103F00000268287C00280CBF4FF400734023012175
:103F10002846FDF796FA304670BD022281212846D8
:103F2000FDF72FBA10B504468121FDF73AFA0022B9
:103F3000E26201212046FDF734FA0020C4F858015E
:103F400082212046FDF72DFA0021216404F5247416
:103F5000206838B16068416888472068FDF7C0FA7A
:103F600000202060002010BDF8B5044604F51D7344
:103F70000D46DE6900218DF80010ADF80210002713
:103F8000297811F0600022D020283AD1EA88C2B105
:103F9000687809060AD51B6AD3F808C03146E0479D
:103FA000EA8831462046FEF72EFC2FE006F5007128
:103FB0000870E88848703146EA882046FEF733FCEE
:103FC00024E01B6A68789C682946A0471EE0687850
:103FD00020B10A2809D00B2810D012E01978032943
:103FE0000FD102220DF1020104E01878032808D154
:103FF000012269462046FEF706FC07E018780328F0
:1040000004D029462046FEF7D0FB02273846F2BDF1
:10401000F8B5044604F5247002688568E2B10E46DE
:10402000142010FB06F02718F86980B11C235E43AA
:10403000AB195B6CB0FBF3F503FB150038B9002638
:10404000FE61002300222046FDF7EEF902E0002386
:10405000C2F814320020F2BD0220F2BD70B500F5A6
:104060002474256805F50176FDF7F8F9B06020683D
:1040700038B162683068D36805F50371984700204D
:1040800070BD022070BD10B500F524704368016852
:10409000002B1EBF01F500742078FF2804D0627841
:1040A0009B689847FF202070002010BD43210180AD
:1040B000064870474321018005487047432101802D
:1040C000044870470A210180034870479800002087
:1040D00054000020DC0000201000002002460220D6
:1040E00011B1C2F8941200207047D0F8900200F588
:1040F00002700160826000207047D0F89002C0F822
:1041000004120020704780B5D0F8901289B101F5F3
:104110000272D16859B90123D3609168016381218A
:10412000936812689BB2FDF77FF9002002BD012061
:1041300002BD022002BD80B5D0F8901261B1D1F865
:104140000422017C00290CBF4FF40073402301219D
:10415000FDF777F9002002BD022002BD62F30F22B5
:1041600062F31F42401810F0030308D0C91A1FD38E
:10417000DB0748BF00F8012D28BF20F8022D1300EF
:1041800030B414461546103928BF20E93C00FAD84F
:10419000490728BF20E90C0048BF40F8042D8900DA
:1041A00028BF20F8022D48BF00F8012D30BC704711
:1041B000C91818BF00F8012DCB0728BF00F8012D42
:1041C00070470000D3BBD9B1B2F5803F5BD2022A61
:1041D0001ED98C46B1FBF2F102FB11C31B0443EA6A
:1041E0001043B3FBF2FC02FB1C3380B240EA0343F2
:1041F000B3FBF2F002FB103240EA0C4000237047A0
:10420000022A05D98446B0FBF2F002FB10C27047C7
:104210004AB105D100F0010249085FEA3000704759
:1042200000220023704700F051B80B00020000216B
:1042300000207047F7D3002200237047904271EBB3
:10424000030CF2D370B5B1FA81F4B3FA83F52C1BE9
:10425000A340C4F1200532FA05F63343A2405FF0D3
:104260000046E64002E05B085FEA3202841A71EB26
:10427000030524BF204629467641F4D302000B00F3
:104280003000002170BD70B5B1FA81F4B2FA82F548
:10429000C4F120046419B4F12006DAD3B2405FF00F
:1042A0000044F440002502E052085FEA3303C61AD6
:1042B00071EB020E24BF3046714664416D41F3D369
:1042C00002000B002000290070BD000070470000B4
:1042D000122008801F487047042008801E4870473D
:1042E0002DE9104000F028F82AA004E02DE9104044
:1042F00000F022F82DA02146FEF762FA204610BDFC
:1043000038B51A20088015494C6808688968144D2A
:10431000081809D00822A91C00F028F8042205F189
:104320001201204600F022F8284632BD2DE9104047
:1043300000F002F822A0DEE70A460A4C70470000AF
:104340002DE91040FFF7F8FF20A0D4E70C200880EB
:104350000548704750010020700100209075FF1F34
:1043600074010020541A00206401002030B500239D
:104370000CE0040F0A2C2CBF3734303401F8134002
:1043800001EB4305002400016C705B1C9342F0DBE1
:1043900030BD000053544D3332205669727475613C
:1043A0006C20436F6D506F727400000053544D6960
:1043B00063726F656C656374726F6E69637300001E
:1043C00043444320436F6E666967000043444320C3
:1043D000496E74657266616365000000F0B4024660
:1043E000106895681318506803EB5004C0071CD57B
:1043F0004D441AE013F8017B05F8017B491EF9D101
:1044000098B113F8011BC6F38106032E08BF13F8F9
:10441000016B01EB06214942801C294405D011F8AB
:10442000016B05F8016B401EF9D1A3420ED013F8C1
:10443000016B16F0030104BF13F8011BC91C3009FE
:104440000F28DBD113F8010B0F30D7E7F0BC02F1D6
:104450000C0070477047FEE7FEE7FEE7FEE7704797
:104460007047704700F02CB880B52020FDF783FD21
:104470004020FDF780FD8020FDF77DFDBDE8024076
:104480004FF48070FDF777BD80B54FF48060FDF785
:1044900072FD4FF40060FDF76EFD4FF40050FDF724
:1044A0006AFD4FF48040FDF766FDBDE802404FF421
:1044B0000040FDF760BD0148FCF732BB90110020C1
:1044C00002490A68886882180A6070470000002064
:1044D0000E48016841F47001016000220C4908682F
:1044E00040F0010008608A604FF480520B68094870
:1044F00003400B60CA6000200B68074A23F4802346
:104500000B6088614FF000611160704788ED00E03A
:1045100000100240FFFFF6EA08ED00E00000000096
:10452000000000000102030406070809A08601003C
:10453000400D0300801A060000350C0040420F00B9
:1045400080841E0000093D0000127A000024F4005F
:1045500000366E010048E801006CDC0210B5074926
:1045600079441831064C7C44163404E00A68081D6E
:10457000114488470146A142F8D110BD2C0000002B
:10458000480000004EF68851CEF20001086840F461
:1045900070000860BFF34F8FBFF36F8F4FF0007054
:1045A000E1EE100A704700000FC4FFFFA01E0000DC
:1045B000900100200000000025FEFFFFAC0100007C
:1045C000CA0100000000002000F00DF8002801D012
:1045D000FFF7C4FFAFF300800020AFF30080FDF7CA
:1045E00033FE00F002F80120704700F001B800002F
:1045F0000746384600F002F8FBE7000080B5AFF34D
:104600000080024A11001820ABBEFBE72600020022
:104610000148804701480047D1440008214600086E
:10462000AFF30080FFF7AEFFFFF7CEFF0000000002
:1046300001020304FFF7FEBFFFF7FEBFFFF7FEBF57
:10464000FFF7FEBFFFF7FEBFFFF7FEBFFFF7FEBF9E
:10465000FFF7FEBFFFF7FEBFFFF7FEBFFFF7FEBF8E
:10466000FFF7FEBFFFF7FEBFFFF7FEBFFFF7FEBF7E
:10467000FFF7FEBFFFF7FEBFFFF7FEBFFFF7FEBF6E
:10468000FFF7FEBFFFF7FEBFFFF7FEBFFFF7FEBF5E
:10469000FFF7FEBFFFF7FEBFFFF7FEBFFFF7FEBF4E
:1046A000FFF7FEBFFFF7FEBFFFF7FEBFFFF7FEBF3E
:1046B000FFF7FEBFFFF7FEBFFFF7FEBFFFF7FEBF2E
:1046C000FFF7FEBFFFF7FEBFFFF7FEBFFFF7FEBF1E
:1046D000FFF7FEBFFFF7FEBFFFF7FEBFFFF7FEBF0E
:1046E000FFF7FEBFFFF7FEBFFFF7FEBFFFF7FEBFFE
:1046F000FFF7FEBFFFF7FEBFFFF7FEBFFFF7FEBFEE
:10470000FFF7FEBFFFF7FEBFFFF7FEBFFFF7FEBFDD
:10471000FFF7FEBFFFF7FEBFFFF7FEBFFFF7FEBFCD
:10472000FFF7FEBFFFF7FEBFFFF7FEBFFFF7FEBFBD
:10473000FFF7FEBFFFF7FEBFFFF7FEBFFFF7FEBFAD
:10474000FFF7FEBFFFF7FEBFFFF7FEBFFFF7FEBF9D
:10475000FFF7FEBFFFF7FEBFFFF7FEBFFFF7FEBF8D
:10476000FFF7FEBFFFF7FEBF120001121005220186
:10477000091005093D000A0600020B22401010072F
:10478000953E0008253F00086904211F100387405B
:1047900000081104435D4010610112B51012AD0410
:1047A00012BD0412C504100909024300020100C031
:1047B0003209045912020B101E05240010010524B1
:1047C00001000104240202052406000107058203FA
:1047D00008001009040100020A4E10020705010238
:1047E0007B200107058107F228004422400722812F
:1047F00007200100090744F22C04441003792F001C
:10480000089704129B04129F041003D1420008D998
:104810000412ED0412E1041003014300082D0412F8
:104820004104124D04131201691005020040830473
:1048300040577D170203491001050F0C681210172D
:0D484000F007080000040309041A0300013A
:040000050800462188
:00000001FF
